:100000000C9472000C9493000C9493000C94930045
:100010000C9493000C9493000C9493000C94930014
:100020000C9493000C9493000C9493000C94930004
:100030000C9493000C9493000C9493000C949300F4
:100040000C9493000C9493000C9493000C949300E4
:100050000C9493000C9493000C9493000C946A04F9
:100060000C9493000C9476020C9493000C949300DF
:100070000C9493000C9493000C9493000C949300B4
:100080000C9493000C9493000C9493000C949300A4
:100090000C9493000C9493000C9493000C94930094
:1000A0000C9493000C9493000C9493000C94930084
:1000B0000C9493000C9493000C9493000C94930074
:1000C0000C9493000C9493000C9493000C94930064
:1000D0000C9493000C9493000C9493000C94930054
:1000E0000C94930011241FBECFEFD1E2DEBFCDBF31
:1000F00000E00CBF12E0A0E0B2E0EAE9F9E000E0C5
:100100000BBF02C007900D92A232B107D9F713E0DE
:10011000A2E2B2E001C01D92AD32B107E1F70E9448
:1001200094040C94CB040C94000008950895089551
:100130000895089584E60E945F020895682F85B1AE
:1001400090E041E00E9405030895682F85B190E09A
:1001500040E00E9405030895862F90E0642F422F0F
:100160000E9405030895862F90E0642F0E942A03C1
:100170000895AF92BF92CF92DF92EF92FF920F93CA
:100180001F93DF93CF9300D000D0CDB7DEB78C01A3
:100190007B015C834B8319826B010894C108D108F1
:1001A00071E0A72EB12C41E037C0BE82AD824A83F8
:1001B00011C08D819E819C0163E0220F331F6A95DF
:1001C000E1F7880F991F280F391F3E832D838A81FD
:1001D0008F5F8A832A81898130E090E080959095B5
:1001E0008E0D9F1D8217930720F729818B819C819B
:1001F0006D817E81F801E20FF11D0E94B704605D00
:1002000060838B819C816D817E810E94B7049C8379
:100210008B8389818F5F8983898190E08C159D050F
:1002200020F28B819C810E0D1F1D01501040805DBE
:10023000F801808326960FB6F894DEBF0FBECDBFBF
:10024000CF91DF911F910F91FF90EF90DF90CF90B2
:10025000BF90AF900895089508959F92AF92BF9276
:10026000CF92DF92EF92FF920F931F93DF93CF9382
:10027000CDB7DEB72C970FB6F894DEBF0FBECDBF5B
:100280002FB7F89489E292E0909329038093280392
:1002900090932B0380932A032FBF99249394E8E033
:1002A000CE2ED12CCC0EDD1E5C018FB7F894909130
:1002B0002C038FBF80E0992309F481E08B838B812D
:1002C000882399F7E0912A03F0912B03E081809134
:1002D0002A0390912B03019690932B0380932A037A
:1002E00080912A0390912B038852934021F4B0927D
:1002F0002B03A0922A038FB7F89490912C0391506E
:1003000090932C038FBFEA838A818A3161F48091B4
:100310002202882329F40E94B003909222027BC01B
:100320001092220278C08A818931A9F4998209C089
:10033000898190E00E9443030E94D70289818F5FE8
:1003400089838981209127023091280290E08217C9
:10035000930770F360C08A818E3069F580E092E087
:100360006FE00E94C402188680E090E00E94430380
:10037000F82EEE24FD82EC820C811D8181E090E05C
:100380000E94430390E0802B912B9D838C838C8172
:100390009D814C815D81C60164E070E00E94B900DE
:1003A0001C86C60165E00E94C4028FE092E063E013
:1003B0000E94C40230C080912202882349F18091BA
:1003C0002702909128026A810E948D030E94C50332
:1003D0008A810E94D7028A818D3059F48091270248
:1003E000909128026AE00E948D030E94C5038AE072
:1003F00010C08A81883079F48FEF9FEF0E94C50387
:1004000080912702909128026A810E948D0303C087
:100410008A810E94D7021F821E8205C08E819F8121
:1004200001969F838E838E819F818051974208F031
:100430003CCFF4CFDF92EF92FF920F931F938C018A
:100440007B01D42E452F6F5F7F4F0E945202C8015F
:10045000B7014D2D0E9452021F910F91FF90EF9016
:10046000DF9008951F93DF93CF930F92CDB7DEB740
:10047000142F0E94590221E030E0012E02C0220F09
:10048000331F0A94E2F7809582238983898190E063
:1004900002C0959587951A95E2F70F90CF91DF915D
:1004A0001F910895FB01E80FF91F50E0518340832D
:1004B0000895FB01E80FF91F808191810895F89458
:1004C000E5B5F0E020813181226031832083E6B5FB
:1004D000F0E020E031E0281B310931832083E091F6
:1004E0006E00F0E011821082789408951F920F92AE
:1004F0000FB60F920BB60F9211248F939F93EF9329
:10050000FF93DF93CF930F92CDB7DEB78091C600F4
:100510009091C70089838FB7F89490912C038FBF77
:100520009F3F19F18981E0912803F091290380838D
:100530008091280390912903019690932903809339
:100540002803E0912803F091290383E0E832F807BB
:1005500021F489E292E0918380839FB7F89480919F
:100560002C038F5F80932C039FBF78940F90CF91C3
:10057000DF91FF91EF919F918F910F900BBE0F90A4
:100580000FBE0F901F901895FC010DC08091C00008
:100590009091C10085FFFACF3196822F90E0909321
:1005A000C7008093C6002081222381F70895282F59
:1005B0008091C0009091C10085FFFACF822F90E01A
:1005C0009093C7008093C60008958FEF90E096B98E
:1005D00085B91CB81BB80895FC01DC0111972D9159
:1005E0003C91119781E090E002C0880F991F6A95B5
:1005F000E2F7282B392B11963C932E9320813181E1
:1006000082279327918380830895CF93DF93EC0112
:10061000FC01319780819181A1E0B0E002C0AA0F76
:10062000BB1F6A95E2F78A2B9B2B9183808344231F
:1006300029F0888199818A2B9B2B07C028813981D9
:100640008A2F809590E08223932399838883DF917A
:10065000CF910895FC01DC0111972D913C911197E8
:10066000862F809590E08223932311969C938E93FE
:1006700032978081918170E08623972391838083D4
:10068000808191810895AC01EFB3F0E08081918188
:1006900081FDFACF8FB390E062E070E00E941A0211
:1006A000EFB3F0E081E090E091838083EFB3F0E07E
:1006B0008181928108950F931F9380E090E00E94C2
:1006C0004303382F20E03093260220932502009127
:1006D00025021091260281E090E00E94430390E001
:1006E000802B912B909326028093250280912502E6
:1006F000909126028F3F910521F4109226021092CC
:10070000250280912502909126020196909328025D
:10071000809327021F910F9108951F93AC01162F0C
:10072000EFB3F0E08081918181FDFACF8FB390E04B
:1007300062E070E00E941A02EFB3F0E0812F90E0D7
:1007400092838183EFB3F0E084E090E09183808333
:10075000EFB3F0E082E090E0918380831F910895F1
:1007600080E090E060E00E948D0381E090E060E036
:100770000E948D03109226021092250282E090E0E2
:1007800090932802809327020895209127023091A8
:10079000280280E090E0632F0E948D036091270281
:1007A0007091280281E090E00E948D0380912702E1
:1007B0009091280201969093280280932702089531
:1007C000DF93CF93CDB7DEB72F970FB6F894DEBF88
:1007D0000FBECDBFDE011296E2E1F2E08EE00190A5
:1007E0000D928150E1F7198288E98983898190E02F
:1007F0009093C2008093C10086E08983898190E054
:100800009093C3008093C20083E38983498180EC85
:1008100090E064E070E050E00E941A0220E030E0D6
:10082000AE014E5F5F4F0EC08091C0009091C1003D
:1008300085FFFACF8E2F90E09093C7008093C6007B
:100840002F5F3F4FFA01E20FF31FE081EE2361F7C4
:100850002F960FB6F894DEBF0FBECDBFCF91DF91BC
:100860000895E6B5F0E08CE990E0918380834091B3
:10087000240224B135B181E090E0042E02C0880F3B
:10088000991F0A94E2F7282B392B35B924B925B1E1
:1008900036B18227932796B985B94830C0F4809144
:1008A0002302882321F481E08093230208954F5F7F
:1008B000409324021092230289E290E060E070E00D
:1008C0000E943202882329F0109224020895109287
:1008D0002402089578941F920F920FB60F920BB6D0
:1008E0000F9211242F933F934F935F936F937F93B6
:1008F0008F939F93AF93BF93EF93FF930E94310425
:100900007894FF91EF91BF91AF919F918F917F91DB
:100910006F915F914F913F912F910F900BBE0F9070
:100920000FBE0F901F901895DF93CF9300D00F92BA
:100930000F92CDB7DEB749815A816B817C818D8161
:100940000E9495006BB1CE01019641E00E94B30078
:1009500083E20E94E50289E20E94E5020E949A0079
:100960000E94E0030E945B030E942D01FFCFAA1B9F
:10097000BB1B51E107C0AA1FBB1FA617B70710F08A
:10098000A61BB70B881F991F5A95A9F780959095BC
:0A099000BC01CD010895F894FFCFDB
:10099A0042797465732073746F7265643A20000D2E
:1009AA000A0048656C6C6F20576F726C640D0A0000
:0209BA006400D7
:00000001FF
