:100000000C9472000C9493000C9493000C94930045
:100010000C9493000C9493000C9493000C94930014
:100020000C9493000C9493000C9493000C94930004
:100030000C9493000C9493000C9493000C949300F4
:100040000C9493000C9493000C9493000C949300E4
:100050000C9493000C9493000C9493000C94B703AD
:100060000C9493000C9491020C9493000C949300C4
:100070000C9493000C9493000C9493000C949300B4
:100080000C9493000C9493000C9493000C949300A4
:100090000C9493000C9493000C9493000C94930094
:1000A0000C9493000C9493000C9493000C94930084
:1000B0000C9493000C9493000C9493000C94930074
:1000C0000C9493000C9493000C9493000C94930064
:1000D0000C9493000C9493000C9493000C94930054
:1000E0000C94930011241FBECFEFD1E2DEBFCDBF31
:1000F00000E00CBF12E0A0E0B2E0E0E3F8E000E0D6
:100100000BBF02C007900D92A232B107D9F712E0DF
:10011000A2E2B2E001C01D92A932B107E1F70E944C
:10012000E1030C9416040C940000089508950895BA
:100130000895089584E60E9471010895682F85E26C
:1001400090E041E00E94A5010895682F85E290E0CB
:1001500040E00E94A5010895862F90E0642F422F71
:100160000E94A5010895862F90E0642F0E94BE0191
:100170000895AF92BF92CF92DF92EF92FF920F93CA
:100180001F93DF93CF9300D000D0CDB7DEB78C01A3
:100190007B015C834B8319826B010894C108D108F1
:1001A00071E0A72EB12C41E037C0BE82AD824A83F8
:1001B00011C08D819E819C0163E0220F331F6A95DF
:1001C000E1F7880F991F280F391F3E832D838A81FD
:1001D0008F5F8A832A81898130E090E080959095B5
:1001E0008E0D9F1D8217930720F729818B819C819B
:1001F0006D817E81F801E20FF11D0E940204605DB5
:1002000060838B819C816D817E810E9402049C832E
:100210008B8389818F5F8983898190E08C159D050F
:1002200020F28B819C810E0D1F1D01501040805DBE
:10023000F801808326960FB6F894DEBF0FBECDBFBF
:10024000CF91DF911F910F91FF90EF90DF90CF90B2
:10025000BF90AF90089508950895DF92EF92FF92B6
:100260000F931F938C017B01D42E452F6F5F7F4F1F
:1002700050E00E946701C801B7014D2D50E00E9477
:1002800067011F910F91FF90EF90DF9008951F93EA
:10029000DF93CF930F92CDB7DEB7142F0E946C017E
:1002A00021E030E0012E02C0220F331F0A94E2F752
:1002B000809582238983898190E002C095958795F6
:1002C0001A95E2F70F90CF91DF911F910895FB01EE
:1002D000E80FF91F40830895FB01E80FF91F8081A3
:1002E0000895F89495B5956095BD819586BD81E09A
:1002F00080936E0078940895FC0107C08091C0003F
:1003000085FFFCCF31969093C60090819923B1F779
:100310000895982F8091C00085FFFCCF9093C60070
:1003200008958FEF85B91BB80895DC01FC01229177
:1003300081E090E002C0880F991F6A95E2F7282BB0
:1003400020832C9182278C930895DC01FC018291FB
:1003500021E030E002C0220F331F6A95E2F7922FAE
:10036000822B8083442321F08C91982B9C930895B9
:100370009C91822F809589238C930895DC01FC0148
:100380008291962F90958923808312978C91862352
:100390008C938C910895AC01F999FECF8FE390E096
:1003A00062E070E00E942D0181E08FBB80B508956E
:1003B0000F931F9380E090E00E94CB01382F20E044
:1003C00030932602209325020091250210912602E7
:1003D00081E090E00E94CB0190E0802B912B9093E4
:1003E00026028093250280912502909126028F3F5C
:1003F000910521F410922602109225028091250287
:1004000090912602019690932802809327021F91D3
:100410000F9108951F93AC01162FF999FECF8FE32A
:1004200090E062E070E00E942D0110BD84E08FBB7F
:1004300082E08FBB1F91089580E090E060E00E9411
:100440000A0281E090E060E00E940A021092260217
:100450001092250282E090E0909328028093270278
:100460000895209127023091280280E090E0632FC8
:100470000E940A02609127027091280281E090E0B8
:100480000E940A028091270290912802019690937F
:100490002802809327020895DF93CF93CDB7DEB76C
:1004A0002F970FB6F894DEBF0FBECDBFDE011296B8
:1004B000E0E0F2E08EE001900D928150E1F71982C8
:1004C00088E9898389818093C10086E08983898155
:1004D0008093C20083E38983498180EC90E064E0EB
:1004E00070E050E00E942D0120E030E0AE014E5F50
:1004F0005F4F08C08091C00085FFFCCFE093C6002D
:100500002F5F3F4FFA01E20FF31FE081EE2391F7D7
:100510002F960FB6F894DEBF0FBECDBFCF91DF91FF
:1005200008951F920F920FB60F920BB60F921124DF
:100530000F931F932F933F934F935F936F937F93EB
:100540008F939F93AF93BF93EF93FF93DF93CF93DB
:10055000CDB7DEB72997DEBFCDBF8091C6008983B6
:1005600089818A3169F480912202882331F40E94C2
:100570001C0281E080932202B0C010922202ADC022
:1005800089818931D1F481E00DC08A8190E00E9497
:10059000CB01982F8091C00085FFFCCF9093C600BF
:1005A0008A818F5F8A838A81209127023091280275
:1005B00090E08217930748F390C089818E3009F04C
:1005C0004EC0EEE0F2E007C08091C00085FFFCCF96
:1005D00031969093C60090819923B1F71D8280E0F7
:1005E00090E00E94CB01382F20E03C832B830B81CD
:1005F0001C8181E090E00E94CB0190E0802B912B48
:100600009C838B838B819C814B815C818E010B5FF2
:100610001F4FC80164E070E00E94B900198620E015
:1006200030E0A80108C08091C00085FFFCCFE093B6
:10063000C6002F5F3F4FFA01E20FF31FE081EE2368
:1006400091F7EDE1F2E007C08091C00085FFFCCF9B
:1006500031969093C60090819923B1F73EC0809166
:100660002202882399F180912702909128026981C2
:100670000E940A020E94310299818091C00085FF88
:10068000FCCF9093C60089818D3089F48091270238
:10069000909128026AE00E940A020E943102809131
:1006A000C00085FFFCCF8AE08093C60016C0898118
:1006B000883099F48FEF9FEF0E94310280912702DA
:1006C0009091280269810E940A0207C09981809155
:1006D000C00085FFFCCF9093C60078942996DEBFBA
:1006E000CDBFCF91DF91FF91EF91BF91AF919F91DE
:1006F0008F917F916F915F914F913F912F911F91BA
:100700000F910F900BBE0F900FBE0F901F9018957A
:100710008CE986BD4091240224B181E090E0042E52
:1007200002C0880F991F0A94E2F7282B24B925B13B
:10073000822785B94830C0F480912302882321F4B0
:1007400081E08093230208954F5F4093240210922A
:10075000230289E290E060E070E00E944701882374
:1007600029F010922402089510922402089578949A
:100770001F920F920FB60F920BB60F9211242F9368
:100780003F934F935F936F937F938F939F93AF9319
:10079000BF93EF93FF930E9488037894FF91EF91AA
:1007A000BF91AF919F918F917F916F915F914F9189
:1007B0003F912F910F900BBE0F900FBE0F901F9087
:1007C0001895DF93CF9300D00F920F92CDB7DEB77D
:1007D00049815A816B817C818D810E949500CE0177
:1007E00001966BE241E00E94B30083E20E94910116
:1007F00089E20E9491010E949A000E944C020E948C
:10080000D801FFCFAA1BBB1B51E107C0AA1FBB1F0A
:10081000A617B70710F0A61BB70B881F991F5A958C
:10082000A9F780959095BC01CD010895F894FFCF6C
:1008300048656C6C6F20576F726C640D0A004279CA
:100840007465732073746F7265643A20000D0A003A
:02085000016441
:00000001FF
