:100000000C9472000C9493000C9493000C94930045
:100010000C9493000C9493000C9493000C94930014
:100020000C9493000C9493000C9493000C94930004
:100030000C9493000C9493000C9493000C949300F4
:100040000C9493000C9493000C9493000C949300E4
:100050000C9493000C9493000C9493000C948101E5
:100060000C9493000C94B0020C9493000C949300A5
:100070000C9493000C9493000C9493000C949300B4
:100080000C9493000C9493000C9493000C949300A4
:100090000C9493000C9493000C9493000C94930094
:1000A0000C9493000C9493000C9493000C94930084
:1000B0000C9493000C9493000C9493000C94930074
:1000C0000C9493000C9493000C9493000C94930064
:1000D0000C9493000C9493000C9493000C94930054
:1000E0000C94930011241FBECFEFD1E2DEBFCDBF31
:1000F00000E00CBF12E0A0E0B2E0E4EAF7E000E0CC
:100100000BBF02C007900D92A431B107D9F712E0DE
:10011000A4E1B2E001C01D92AA31B107E1F70E944B
:100120009B030C94D0030C94000008950895089547
:100130000895089584E60E9435010895682F85E2A8
:1001400090E041E00E945F020895682F85E290E010
:1001500040E00E945F020895862F90E0642F422FB6
:100160000E945F020895862F90E0642F0E9478021B
:100170000895AF92BF92CF92DF92EF92FF920F93CA
:100180001F93DF93CF9300D000D0CDB7DEB78C01A3
:100190007B015C834B8319826B010894C108D108F1
:1001A00071E0A72EB12C41E037C0BE82AD824A83F8
:1001B00011C08D819E819C0163E0220F331F6A95DF
:1001C000E1F7880F991F280F391F3E832D838A81FD
:1001D0008F5F8A832A81898130E090E080959095B5
:1001E0008E0D9F1D8217930720F729818B819C819B
:1001F0006D817E81F801E20FF11D0E94BC03605DFC
:1002000060838B819C816D817E810E94BC039C8375
:100210008B8389818F5F8983898190E08C159D050F
:1002200020F28B819C810E0D1F1D01501040805DBE
:10023000F801808326960FB6F894DEBF0FBECDBFBF
:10024000CF91DF911F910F91FF90EF90DF90CF90B2
:10025000BF90AF900895FB01E80FF91F4083089508
:10026000FB01E80FF91F80810895F89495B595601A
:1002700095BD819586BD81E080936E007894089548
:10028000DF93CF930F92CDB7DEB78CE986BD309167
:10029000160224B141E050E0CA01032E02C0880FCB
:1002A000991F0A94E2F7282B24B925B1822785B932
:1002B000383008F580911502882321F481E080937D
:1002C00015021BC0232F2F5F2093160210921502D8
:1002D00089B1022E02C0440F551F0A94E2F780959F
:1002E00084238983898190E002C0959587952A951A
:1002F000E2F7882311F0109216020F90CF91DF9150
:10030000089578941F920F920FB60F920BB60F922A
:1003100011242F933F934F935F936F937F938F930A
:100320009F93AF93BF93EF93FF930E944001789404
:10033000FF91EF91BF91AF919F918F917F916F91BD
:100340005F914F913F912F910F900BBE0F900FBE79
:100350000F901F901895DF93CF93CDB7DEB72F97EF
:100360000FB6F894DEBF0FBECDBFDE011296E0E0FF
:10037000F2E08EE001900D928150E1F7198288E958
:10038000898389818093C10086E0898389818093F4
:10039000C20083E3898389811092C5008093C400E1
:1003A00020E030E0AE014E5F5F4F08C08091C0009A
:1003B00085FFFCCFE093C6002F5F3F4FFA01E20FAD
:1003C000F31FE081EE2391F72F960FB6F894DEBF6E
:1003D0000FBECDBFCF91DF910895FC0107C0809182
:1003E000C00085FFFCCF31969093C6009081992381
:1003F000B1F70895982F8091C00085FFFCCF9093AE
:10040000C6000895F999FECF92BD81BD60BD84E01C
:100410008FBB82E08FBB0895F999FECF92BD81BD5D
:1004200081E08FBB80B5089580E090E00E940C02CF
:1004300080931702809117028F3F11F410921702D8
:100440008091170290E00196909319028093180210
:100450000895609118027091190280E090E00E9466
:10046000020280911802909119020196909319024C
:1004700080931802089580E090E060E00E940202FC
:10048000109217028091170290E001969093190242
:100490008093180208958FEF85B91BB80895DC0189
:1004A000FC01229181E090E002C0880F991F6A95BB
:1004B000E2F7282B20832C9182278C930895DC016E
:1004C000FC01829121E030E002C0220F331F6A95C7
:1004D000E2F7922F822B8083442321F08C91982B7A
:1004E0009C9308959C91822F809589238C930895E5
:1004F000DC01FC018291962F9095892380831297CD
:100500008C9186238C938C91089508950895DF93A0
:10051000CF930F92CDB7DEB7FB01E80FF91F208113
:10052000209581E090E0042E02C0880F991F0A9464
:10053000E2F728232983898190E002C09595879569
:100540004A95E2F70F90CF91DF910895DB01FC010E
:100550003196E60FF71F5083A80FB91F4C930895EB
:100560001F920F920FB60F920BB60F9211240F939A
:100570001F932F933F934F935F936F937F938F932B
:100580009F93AF93BF93EF93FF93DF93CF93CDB739
:10059000DEB72997DEBFCDBF8091C60089838981F0
:1005A0008A3169F480911402882331F40E943B025D
:1005B00081E080931402A4C010921402A1C089812A
:1005C0008931D1F481E00DC08A8190E00E940C0253
:1005D000982F8091C00085FFFCCF9093C6008A8140
:1005E0008F5F8A838A81209118023091190290E0EE
:1005F0008217930748F384C089818E3009F042C086
:100600001A828E010B5F1F4F08C08A81F801E80F24
:10061000F11D10828A818F5F8A838A818530A8F3D9
:1006200080E090E00E940C0290E09C838B838B81A1
:100630009C814B815C81C80164E070E00E94B9003C
:1006400020E030E0AE014B5F5F4F08C08091C000FA
:1006500085FFFCCFE093C6002F5F3F4FFA01E20F0A
:10066000F31FE081EE2391F7EEE0F2E007C0809106
:10067000C00085FFFCCF31969093C60090819923EE
:10068000B1F73EC080911402882399F1809118023D
:100690009091190269810E9402020E9429029981A7
:1006A0008091C00085FFFCCF9093C60089818D307A
:1006B00089F480911802909119026AE00E94020266
:1006C0000E9429028091C00085FFFCCF8AE08093C0
:1006D000C60016C08981883099F48FEF9FEF0E9481
:1006E0002902809118029091190269810E940202E8
:1006F00007C099818091C00085FFFCCF9093C60010
:1007000078942996DEBFCDBFCF91DF91FF91EF9115
:10071000BF91AF919F918F917F916F915F914F9119
:100720003F912F911F910F910F900BBE0F900FBE15
:100730000F901F901895DF93CF9300D00F920F92D8
:10074000CDB7DEB749815A816B817C818D810E9452
:100750009500CE0101966BE241E00E94B30083E276
:100760000E944B0289E20E944B020E949A000E9462
:10077000AB010E941402FFCFAA1BBB1B51E107C0B3
:10078000AA1FBB1FA617B70710F0A61BB70B881F21
:10079000991F5A95A9F780959095BC01CD010895B0
:0407A000F894FFCFFB
:1007A40048656C6C6F20576F726C640D0A000D0AFB
:0407B40000016400DC
:00000001FF
